:100000000C9403010C9430010C9430010C943001D9
:100010000C9430010C9430010C9430010C9430019C
:100020000C9430010C9430010C9430010C9430018C
:100030000C9430010C9430010C9430010C9430017C
:100040000C9430010C9430010C9430010C9430016C
:100050000C9430010C9430010C9430010C94FC068B
:100060000C9430010C9484010C94B0020C94300177
:100070000C9430010C9430010C9430010C9430013C
:100080000C9430010C9430010C9430010C9430012C
:100090000C94BD010C94EF020C9430010C943001CF
:1000A0000C9430010C9430010C9430010C9430010C
:1000B0000C9430010C9430010C9430010C943001FC
:1000C0000C9430010C9430010C9430010C94F60126
:1000D0000C942E030C9430010C942F020C946D039D
:1000E0000C94300100002100240027002A002D007C
:1000F0003000330001010000040107010A01000083
:100100002200250028002B002E00310034000201BF
:100110000000050108010B0100002000230026005B
:1001200029002C002F00320000010000030106010D
:10013000090105050505070508080808020202026D
:100140000A0A080804040404010101010101010173
:100150000303030303030303040707070C0C0C0C3E
:100160000C0C0C0C02020202060606060606060627
:100170000B0B0B0B0B0B0B0B0102102020080810B4
:100180002040102040800201020108040201010207
:1001900004081020408080402010080402018004E0
:1001A000020180402010080402010804020101023B
:1001B0000408102040800102040810204080000044
:1001C000090A02080B0C0D070603040100000000D9
:1001D000000000000000000000000000000000001F
:1001E0000000000000000000000011100F000000DF
:1001F00000000000000000000000000000000000FF
:1002000000000000D70411241FBECFEFD1E2DEBFF3
:10021000CDBF00E00CBF12E0A0E0B2E0E4EAF1E103
:1002200000E00BBF02C007900D92A631B107D9F7CD
:100230001BBE14E0A6E1B2E001C01D92A13CB107D3
:10024000E1F712E0C6E0D2E004C02297FE010E946E
:10025000CC08C430D107C9F70E94ED060C94D00831
:100260000C940000809102020E9459089C01909316
:100270001B0280931A028091180290911902892B17
:1002800031F52130310519F5809104020E94590899
:100290002091160230911702892B19F42150304019
:1002A00002C02F5F3F4F30931702209316026091D8
:1002B0001602709117028CE394E04AE050E00E942D
:1002C000D7068CE394E060E072E00E94EA06809139
:1002D0001A0290911B0290931902809318020895BC
:1002E0008091020260E00E94A6078091040260E013
:1002F0000E94A6078CE394E040E855E260E070E0DD
:100300000E94AC03089508951F920F920FB60F92AA
:100310000BB60F9211242F933F934F938F939F937C
:10032000EF93FF934091C60020915C0230915D02F3
:100330002F5F3F4F2F73307080915E0290915F026C
:100340002817390759F0E0915C02F0915D02E45EF4
:10035000FD4F408330935D0220935C02FF91EF914B
:100360009F918F914F913F912F910F900BBE0F90C6
:100370000FBE0F901F90189508951F920F920FB601
:100380000F920BB60F9211242F933F934F938F939D
:100390009F93EF93FF934091CE002091E402309120
:1003A000E5022F5F3F4F2F7330708091E6029091EE
:1003B000E7022817390759F0E091E402F091E502CD
:1003C000EC55FD4F40833093E5022093E402FF910A
:1003D000EF919F918F914F913F912F910F900BBE75
:1003E0000F900FBE0F901F90189508951F920F92B7
:1003F0000FB60F920BB60F9211242F933F934F938A
:100400008F939F93EF93FF934091D60020916C03BD
:1004100030916D032F5F3F4F2F73307080916E03CB
:1004200090916F032817390759F0E0916C03F09110
:100430006D03E45DFC4F408330936D0320936C03A8
:10044000FF91EF919F918F914F913F912F910F903D
:100450000BBE0F900FBE0F901F90189508951F921E
:100460000F920FB60F920BB60F9211242F933F935A
:100470004F938F939F93EF93FF9340913601209179
:10048000F4033091F5032F5F3F4F2F73307080914D
:10049000F6039091F7032817390759F0E091F40318
:1004A000F091F503EC54FC4F40833093F503209317
:1004B000F403FF91EF919F918F914F913F912F9175
:1004C0000F900BBE0F900FBE0F901F901895E091EC
:1004D0004804F0914904E05CFF4F819191912081A3
:1004E0003181821B930B8F739070892B11F00E94C6
:1004F0008301E0916704F0916804E05CFF4F819113
:10050000919120813181821B930B8F739070892B85
:1005100011F00E94BC01E0918604F0918704E05C38
:10052000FF4F8191919120813181821B930B8F73B9
:100530009070892B11F00E94F501E091A504F091D3
:10054000A604E05CFF4F8191919120813181821B53
:10055000930B8F739070892B11F00E942E020895D7
:100560001F920F920FB60F920BB60F9211242F937A
:100570003F938F939F93EF93FF932091A00230912D
:10058000A1028091A2029091A3022817390731F4A9
:100590008091C1008F7D8093C10014C0E091A202C0
:1005A000F091A302E05AFD4F20818091A202909128
:1005B000A30201968F7390709093A3028093A2027E
:1005C0002093C600FF91EF919F918F913F912F91C2
:1005D0000F900BBE0F900FBE0F901F9018951F929B
:1005E0000F920FB60F920BB60F9211242F933F93D9
:1005F0008F939F93EF93FF932091280330912903CA
:1006000080912A0390912B032817390731F48091A8
:10061000C9008F7D8093C90014C0E0912A03F09136
:100620002B03E851FD4F208180912A0390912B03E9
:1006300001968F73907090932B0380932A032093DD
:10064000CE00FF91EF919F918F913F912F910F904D
:100650000BBE0F900FBE0F901F9018951F920F9218
:100660000FB60F920BB60F9211242F933F938F93D7
:100670009F93EF93FF932091B0033091B10380914A
:10068000B2039091B3032817390731F48091D10058
:100690008F7D8093D10014C0E091B203F091B30339
:1006A000E059FC4F20818091B2039091B3030196F1
:1006B0008F7390709093B3038093B2032093D6000E
:1006C000FF91EF919F918F913F912F910F900BBED2
:1006D0000F900FBE0F901F9018951F920F920FB69C
:1006E0000F920BB60F9211242F933F938F939F93EA
:1006F000EF93FF93209138043091390480913A04AC
:1007000090913B042817390731F4809131018F7D96
:100710008093310114C0E0913A04F0913B04E85019
:10072000FC4F208180913A0490913B0401968F7395
:10073000907090933B0480933A0420933601FF918C
:10074000EF919F918F913F912F910F900BBE0F9042
:100750000FBE0F901F901895AF92BF92DF92EF924D
:10076000FF920F931F93CF93DF93EC017A018B01DC
:10077000DD24403081EE580780E0680780E078078C
:1007800011F0DD24D39491E0A92EB12CEC89FD89E0
:10079000DD2069F0C5010E8C02C0880F991F0A94F4
:1007A000E2F7808360E079E08DE390E005C010829D
:1007B00060E874E88EE190E0A80197010E94A80823
:1007C00021503040404050405695479537952795E9
:1007D00080E12030380720F0DD2011F0DD24D6CF75
:1007E000E889F9893083EA89FB892083EE89FF89CA
:1007F000408121E030E0C9010A8C02C0880F991FB6
:100800000A94E2F7482B4083EE89FF894081C901B1
:100810000B8C02C0880F991F0A94E2F7482B408383
:10082000EE89FF894081C9010C8C02C0880F991F95
:100830000A94E2F7482B4083EE89FF8980810D8C72
:1008400002C0220F331F0A94E2F720952823208349
:10085000DF91CF911F910F91FF90EF90DF90BF90AC
:10086000AF900895DC011C96ED91FC911D97E05C22
:10087000FF4F2191319180819181281B390B2F737A
:100880003070C9010895DC011C96ED91FC911D9713
:10089000E05CFF4F20813181E054F040DF01AE5B2E
:1008A000BF4F8D919C9111972817390719F42FEF9D
:1008B0003FEF07C08D919C91E80FF91F8081282F91
:1008C00030E0C9010895DC011C96ED91FC911D9763
:1008D000E05CFF4F20813181E054F040DF01AE5BEE
:1008E000BF4F8D919C9111972817390719F42FEF5D
:1008F0003FEF10C08D919C911197E80FF91F208157
:100900008D919C91119701968F73907011969C9385
:100910008E9330E0C9010895FC0186859785DC013E
:10092000A05CBF4FFC01EE5BFF4F2D913C911197F6
:100930008081918128173907C1F70895CF93DF93FC
:10094000EC01EE85FF85E05CFF4F20813181E054B2
:10095000F0402F5F3F4F2F733070DF01AE5BBF4F12
:100960008D919C91119728173907D1F3E05CFF4FC7
:1009700080819181E054F040E80FF91F6083EE859B
:10098000FF85E05CFF4F31832083EE89FF89208162
:1009900081E090E00D8C02C0880F991F0A94E2F765
:1009A000282B208381E090E0DF91CF9108951F9361
:1009B00010923F0410923E0428EE33E040E050E0F5
:1009C00020934004309341044093420450934304E5
:1009D0006AE072E070933D0460933C048CE192E025
:1009E000909349048093480480E692E090934B04EE
:1009F00080934A0485EC90E090934D0480934C04DE
:100A000084EC90E090934F0480934E0480EC90E04F
:100A1000909351048093500481EC90E090935304A0
:100A20008093520486EC90E0909355048093540494
:100A300014E010935604B3E0B0935704A7E0A093DA
:100A40005804F5E0F0935904E1E0E0935A04109261
:100A50005E0410925D0420935F0430936004409321
:100A600061045093620470935C0460935B0484EAB5
:100A700092E0909368048093670488EE92E09093EC
:100A80006A04809369048DEC90E090936C048093E9
:100A90006B048CEC90E090936E0480936D0488EC72
:100AA00090E09093700480936F0489EC90E09093B1
:100AB0007204809371048EEC90E0909374048093A0
:100AC000730410937504B0937604A0937704F093A5
:100AD0007804E093790410927D0410927C042093B2
:100AE0007E0430937F04409380045093810470937C
:100AF0007B0460937A048CE293E090938704809364
:100B0000860480E793E0909389048093880485EDC0
:100B100090E090938B0480938A0484ED90E090930E
:100B20008D0480938C0480ED90E090938F048093EB
:100B30008E0481ED90E0909391048093900486ED73
:100B400090E0909393048093920410939404B09354
:100B50009504A0939604F0939704E0939804109260
:100B60009C0410929B0420939D0430939E04409318
:100B70009F045093A00470939A046093990484EBAB
:100B800093E09093A6048093A50488EF93E090935C
:100B9000A8048093A70485E391E09093AA0480932E
:100BA000A90484E391E09093AC048093AB0480E3C8
:100BB00091E09093AE048093AD0481E391E0909333
:100BC000B0048093AF0486E391E09093B2048093E5
:100BD000B1041093B304B093B404A093B504F0939C
:100BE000B604E093B7041F910895CF92DF92EF927D
:100BF000FF920F931F93CF93DF937C016B018A01C8
:100C0000C0E0D0E00FC0D6016D916D01D701ED912C
:100C1000FC910190F081E02DC7011995C80FD91FF3
:100C2000015010400115110571F7CE01DF91CF91F0
:100C30001F910F91FF90EF90DF90CF900895CF9389
:100C4000DF93DB010D900020E9F71197A61BB70B8E
:100C5000EC01E881F9810280F381E02DAD01199565
:100C6000DF91CF9108954F925F927F928F929F92E2
:100C7000AF92BF92CF92DF92EF92FF920F931F93AA
:100C8000DF93CF93CDB7DEB7A1970FB6F894DEBF51
:100C90000FBECDBF2C01742ECB01223008F42AE008
:100CA00019A231E2C32ED12CCC0EDD1E822E992446
:100CB000AA24BB24672D752FA50194010E94A808C2
:100CC00079018A01C801B701A50194010E94890830
:100CD000472D461B0894C108D1084A3014F4405DE2
:100CE00001C0495CF6014083E114F10401051105DE
:100CF00021F07E2C5F2DC801DDCFC201B6010E941C
:100D00001F06A1960FB6F894DEBF0FBECDBFCF91E0
:100D1000DF911F910F91FF90EF90DF90CF90BF90E8
:100D2000AF909F908F907F905F904F900895CF925B
:100D3000DF92EF92FF920F931F93CF93DF93EC011B
:100D40006A017B012115310541F4E881F9810190A7
:100D5000F081E02D642F19951FC02A303105D1F4A0
:100D600077FF17C0E881F9810190F081E02D6DE2F5
:100D700019958C0144275527BA014C195D096E0954
:100D80007F09CE012AE00E9433069801280F391FFF
:100D900004C02AE00E9433069C01C901DF91CF9173
:100DA0001F910F91FF90EF90DF90CF900895EF92F9
:100DB000FF920F931F937B019A010027F7FC009588
:100DC000102FB801A7010E9497061F910F91FF9065
:100DD000EF9008950E941F060895CF93DF930E941D
:100DE00044070E947001C7E6D2E00E9432012097BA
:100DF000E1F30E946702F9CF1F920F920FB60F9294
:100E000011242F933F938F939F93AF93BF93809120
:100E1000BC049091BD04A091BE04B091BF04309178
:100E2000C0040196A11DB11D232F2D5F2D3720F089
:100E30002D570196A11DB11D2093C0048093BC04C1
:100E40009093BD04A093BE04B093BF048091B804F6
:100E50009091B904A091BA04B091BB040196A11D70
:100E6000B11D8093B8049093B904A093BA04B093D1
:100E7000BB04BF91AF919F918F913F912F910F90A4
:100E80000FBE0F901F901895789484B5826084BD32
:100E900084B5816084BD85B5826085BD85B581607E
:100EA00085BDEEE6F0E0808181608083E1E8F0E0DE
:100EB0001082808182608083808181608083E0E80D
:100EC000F0E0808181608083E1EBF0E080818460EC
:100ED0008083E0EBF0E0808181608083E1E9F0E0F5
:100EE000808182608083808181608083E0E9F0E09E
:100EF000808181608083E1EAF0E08081826080838C
:100F0000808181608083E0EAF0E08081816080837D
:100F1000E1E2F1E080818260808380818160808372
:100F2000E0E2F1E0808181608083EAE7F0E08081A7
:100F300084608083808182608083808181608083FF
:100F40008081806880831092C1000895CF93DF93E1
:100F5000482F50E0CA0188589E4FFC0134914E5CE6
:100F60005E4FFA018491882369F190E0880F991F00
:100F7000FC01EC51FF4FA591B491FC01E250FF4FF1
:100F8000C591D491662351F42FB7F8948C91932F87
:100F9000909589238C93888189230BC0623061F4FA
:100FA0002FB7F8948C91932F909589238C938881F7
:100FB000832B88832FBF06C09FB7F8948C91832B17
:100FC0008C939FBFDF91CF910895893009F449C078
:100FD0008A30A0F4843051F1853040F4823079F1C8
:100FE000833000F5813009F063C026C0873079F185
:100FF000883098F5863009F05BC025C08D3009F443
:1010000042C08E3028F48B30B1F18C30C0F52DC049
:10101000803109F442C0813109F445C08F3009F0B4
:1010200047C037C0809180008F7703C080918000D7
:101030008F7D80938000089584B58F7702C084B53A
:101040008F7D84BD08958091B0008F7703C080911B
:10105000B0008F7D8093B0000895809190008F77CD
:1010600007C0809190008F7D03C080919000877FA2
:101070008093900008958091A0008F7707C08091A1
:10108000A0008F7D03C08091A000877F8093A00087
:101090000895809120018F7703C0809120018F7D7A
:1010A00080932001089580912001877F8093200103
:1010B00008950F931F93482F50E0CA0182549E4F0A
:1010C000FC012491CA0188589E4FFC0104914E5C9A
:1010D0005E4FFA011491112319F420E030E015C09D
:1010E000222319F0822F0E94E507812F90E0880FBC
:1010F000991F885E9E4FFC01A591B4918C9120E0D0
:1011000030E0802311F021E030E0C9011F910F9100
:101110000895629FD001739FF001829FE00DF11D41
:10112000649FE00DF11D929FF00D839FF00D749F61
:10113000F00D659FF00D9927729FB00DE11DF91F0D
:10114000639FB00DE11DF91FBD01CF01112408956A
:10115000A1E21A2EAA1BBB1BFD010DC0AA1FBB1FBB
:10116000EE1FFF1FA217B307E407F50720F0A21B2D
:10117000B30BE40BF50B661F771F881F991F1A949A
:1011800069F760957095809590959B01AC01BD01C4
:10119000CF010895EE0FFF1F0590F491E02D1994F3
:0411A000F894FFCFF1
:1011A4002F001F002100000000009E04F5053204FA
:0611B400630443048C04F7
:00000001FF
